:06000000FFCBF89400C0E4
:1018000012C024C023C022C021C020C01FC01EC0DF
:101810001DC01CC01BC01AC019C018C017C016C0FC
:1018200015C014C013C011241FBECFE5D2E0DEBF27
:10183000CDBF10E0A0E6B0E0E8E4FFE102C0059013
:101840000D92A636B107D9F7C9D07CC3D9CF8F92F4
:101850009F92AF92BF92CF92DF92EF92FF92CF937F
:10186000DF93EC01F62E6CE070E080E090E0E7D2D0
:101870004B015C0160E170E080E090E0C3D218822F
:1018800019821A821B821C821D821E821F82198667
:1018900018862F2D30E040E050E0281539054A0524
:1018A0005B0528F5BC0180E090E0F4D26B017C017F
:1018B000685F7F4F8F4F9F4FC2D2688379838A833F
:1018C0009B83C701B601645F7F4F8F4F9F4FB7D295
:1018D0006C837D838E839F83C701B601605F7F4FDA
:1018E0008F4F9F4F8FD29987888781E001C080E01A
:1018F000DF91CF91FF90EF90DF90CF90BF90AF90AE
:101900009F908F9008950F931F93CF93DF93CDB740
:10191000DEB728970FB6F894DEBF0FBECDBF8C019F
:101920009E012F5F3F4F44E060E070E0CB0142D268
:1019300044E050E060E670E0CE010196C4D2892B0D
:1019400021F461E0C80183DF01C080E028960FB672
:10195000F894DEBF0FBECDBFDF91CF911F910F91E5
:101960000895DF9A26E930E098B388E0892788BB9C
:1019700089B3807390E044E0959587954A95E1F7A7
:101980008230910561F08330910519F0019799F447
:101990000CC083EF91E00197F1F700C0000083EFE6
:1019A00091E00197F1F700C0000083EF91E001970B
:1019B000F1F700C0000087EE93E00197F1F700C057
:1019C00000002150310981F69FEF29E688E191500E
:1019D00020408040E1F700C00000C4CF2F923F922A
:1019E0004F925F926F927F928F929F92AF92BF922F
:1019F000CF92DF92EF92FF920F931F93CF93DF93DB
:101A0000CDB7DEB7C055D1090FB6F894DEBF0FBE13
:101A1000CDBF14BE0FB6F894A89581B5886181BD7D
:101A200011BC0FBEF89489E38BBB8EEC8ABB18BA4D
:101A30008FEF87BB2FEF30E782E0215030408040AE
:101A4000E1F700C0000081D1A2D1FE01EF5BFF4FA2
:101A50002D96FFAFEEAF2D97CF0155DF882309F408
:101A60004EC115E08CEF91E042D26B017C012596CE
:101A70004CAD5DAD6EAD7FAD259729968CAD9DAD1E
:101A8000AEADBFAD2997840F951FA61FB71FBC0130
:101A9000CD016450710981099109D1D12B013C011B
:101AA000C616D706E806F90609F432C1FFEF20E7AB
:101AB00032E0F15020403040E1F700C0000011500A
:101AC00089F64FEF5FEFBA018CEF91E015D2E19903
:101AD000FECFE0E4F0E083E080935700E895E05C1F
:101AE000FF4FE11588E1F807B1F72796EEACFFACA0
:101AF000279794E0E91AF108812C912C5401EFEF1B
:101B0000FFEF6096FFAFEEAF6097F1E02E96FFAF6C
:101B10002E978401E114F10409F4A5C020EC82168B
:101B200027E19206A104B10409F49BC02E963FADB3
:101B30002E97332309F4ECC0170121E4E216F104D7
:101B400018F050E4252E312C61962FAE619707B620
:101B500000FCFDCFE199FECF83E0F80180935700B0
:101B6000E89525968CAD9DADAEADBFAD2597BC017A
:101B7000CD01680D791D8A1D9B1D9E012F5F3F4F72
:101B8000690161964FAD619715D161963FAD61973F
:101B9000303451F040E450E0421953096FEF70E0E7
:101BA000C601820D931D9CD10115110581F4898117
:101BB0009A819F708F5F9B409F7CFC01F06C6096C8
:101BC000FFAFEEAF60978FEF89838BEC8A8396012E
:101BD000D60111968C91119790E0982F88274C91FF
:101BE000842B07B600FCFDCFE199FECFF801EC197C
:101BF000FD09EA0FFB1F41E00C0140935700E895F7
:101C0000112412962D968EAD9FAD2D978A179B07A6
:101C100001F707B600FCFDCFE199FECF85E0F801A2
:101C200080935700E89507B600FCFDCF80E090E078
:101C3000F90141919F01F801E80FF91FE4914E135A
:101C400005C001968034910599F703C02E961FAE0A
:101C50002E97E218F308F0E48F0E911CA11CB11C22
:101C600058CF00EC17E12E968FAD2E97882309F4FC
:101C70004FC007B600FCFDCFE199FECF83E0F8012D
:101C800080935700E895E0ECF7E1EE3F29F4609689
:101C90008EAD9FAD609702C08FEF9FEF07B600FC3F
:101CA000FDCFE199FECF21E00C0120935700E8958C
:101CB00011243296E11528E1F20739F707B600FC46
:101CC000FDCFE199FECFE0ECF7E185E0809357008E
:101CD000E89507B600FCFDCFEEEFF7E18591949112
:101CE0006096EEADFFAD6097E817F90789F4B30190
:101CF000A2018CEF91E000D1E199FECF09C08CEFF9
:101D000091E0F5D06F3F7F4F8F4F9F4F09F429DE51
:101D100076CD80E090E0C05BDF4F0FB6F894DEBF79
:101D20000FBECDBFDF91CF911F910F91FF90EF902C
:101D3000DF90CF90BF90AF909F908F907F906F90EB
:101D40005F904F903F902F90089581E081BB8AE192
:101D50008DB9D29AD19AD098DB9AD39A0895DB980C
:101D60000895DB9A08958FB91EB8689A689A689AA0
:101D7000689A689A689A689A689A689A689A689A53
:101D8000689A689A689A689A689A8FB108958DE0FF
:101D90008A95F1F70000E3DF8BEAE5DF8FEFE3DF01
:101DA0008FEFE1DF8FEFDFDFDCDF8DE08A95F1F78A
:101DB00000000895EF92FF920F931F93CF93DF934C
:101DC000EB01E82E142FF22E032FC9DF83E0CBDFC7
:101DD0008E2DC9DF8D2FC7DF8C2FC5DFCF2DD02FE4
:101DE000CE01810F911D8C01C017D10721F08FEF1B
:101DF000BADF8993F9CFDF91CF911F910F91FF90B7
:101E0000EF90AFCF1F93CF93DF93EB01182FA7DF96
:101E100083E0A9DF812FA7DF8D2FA5DF8C2FA3DF24
:101E20008FEFA1DFC82FD0E0DC2FCC278FEF9BDF17
:101E3000C82B97DFCE01DF91CF911F910895CF92EC
:101E4000DF92EF92FF92CF93DF93EB01F82E87DFC3
:101E500083E089DF8F2D87DF8D2F85DF8C2F83DF58
:101E6000C0E0D0E0C12CD12C7601FE2CED2CDC2C76
:101E7000CC248FEF78DFC82A2196C430D105A9F78A
:101E800070DFC701B601DF91CF91FF90EF90DF9037
:101E9000CF900895EE27FF27AA27BB2708C0A20FDF
:101EA000B31FE41FF51F220F331F441F551F9695C4
:101EB00087957795679598F37040A9F7009799F7FC
:101EC000BD01CF010895FB01DC0104C08D9101909B
:101ED000801921F441505040C8F7881B990B089590
:101EE000DC0101C06D9341505040E0F70895A6E138
:101EF000B0E044E050E00AC0242F17D0252F15D0C1
:101F000000C012D0272F11C0DC01CB01FC01E199E8
:101F1000FECF06C0FFBBEEBBE09A31960DB20D922C
:101F200041505040B8F70895262FE199FECF1CBAD2
:101F30009FBB8EBB2DBB0FB6F894E29AE19A0FBE01
:081F400001960895F894FFCF0B
:061F48004953504C00005B
:0400000300001800E1
:00000001FF
